{
  "_format": "hh-sol-artifact-1",
  "contractName": "FairChainEscrow",
  "sourceName": "contracts/FairChainEscrow.sol",
  "abi": [
    {
      "anonymous": false,
      "inputs": [
        {
          "indexed": true,
          "internalType": "string",
          "name": "contractId",
          "type": "string"
        },
        {
          "indexed": true,
          "internalType": "address",
          "name": "creator",
          "type": "address"
        },
        {
          "indexed": false,
          "internalType": "string",
          "name": "ipfsCid",
          "type": "string"
        },
        {
          "indexed": false,
          "internalType": "uint256",
          "name": "timestamp",
          "type": "uint256"
        }
      ],
      "name": "ContractRegistered",
      "type": "event"
    },
    {
      "anonymous": false,
      "inputs": [
        {
          "indexed": true,
          "internalType": "string",
          "name": "contractId",
          "type": "string"
        },
        {
          "indexed": false,
          "internalType": "uint256",
          "name": "timestamp",
          "type": "uint256"
        }
      ],
      "name": "EscrowRefunded",
      "type": "event"
    },
    {
      "anonymous": false,
      "inputs": [
        {
          "indexed": true,
          "internalType": "string",
          "name": "contractId",
          "type": "string"
        },
        {
          "indexed": false,
          "internalType": "uint256",
          "name": "timestamp",
          "type": "uint256"
        }
      ],
      "name": "EscrowSettled",
      "type": "event"
    },
    {
      "anonymous": false,
      "inputs": [
        {
          "indexed": true,
          "internalType": "string",
          "name": "contractId",
          "type": "string"
        },
        {
          "indexed": true,
          "internalType": "uint256",
          "name": "milestoneIndex",
          "type": "uint256"
        },
        {
          "indexed": false,
          "internalType": "uint256",
          "name": "timestamp",
          "type": "uint256"
        }
      ],
      "name": "MilestoneReleased",
      "type": "event"
    },
    {
      "inputs": [
        {
          "internalType": "uint256",
          "name": "",
          "type": "uint256"
        }
      ],
      "name": "allContractIds",
      "outputs": [
        {
          "internalType": "string",
          "name": "",
          "type": "string"
        }
      ],
      "stateMutability": "view",
      "type": "function"
    },
    {
      "inputs": [],
      "name": "getAllContractIds",
      "outputs": [
        {
          "internalType": "string[]",
          "name": "",
          "type": "string[]"
        }
      ],
      "stateMutability": "view",
      "type": "function"
    },
    {
      "inputs": [
        {
          "internalType": "string",
          "name": "",
          "type": "string"
        }
      ],
      "name": "productContracts",
      "outputs": [
        {
          "internalType": "string",
          "name": "contractId",
          "type": "string"
        },
        {
          "internalType": "string",
          "name": "ipfsCid",
          "type": "string"
        },
        {
          "internalType": "address",
          "name": "creator",
          "type": "address"
        },
        {
          "internalType": "uint256",
          "name": "createdAt",
          "type": "uint256"
        },
        {
          "internalType": "bool",
          "name": "isCompleted",
          "type": "bool"
        }
      ],
      "stateMutability": "view",
      "type": "function"
    },
    {
      "inputs": [
        {
          "internalType": "string",
          "name": "_contractId",
          "type": "string"
        }
      ],
      "name": "refund",
      "outputs": [],
      "stateMutability": "nonpayable",
      "type": "function"
    },
    {
      "inputs": [
        {
          "internalType": "string",
          "name": "_contractId",
          "type": "string"
        },
        {
          "internalType": "string",
          "name": "_ipfsCid",
          "type": "string"
        }
      ],
      "name": "registerContract",
      "outputs": [],
      "stateMutability": "nonpayable",
      "type": "function"
    },
    {
      "inputs": [
        {
          "internalType": "string",
          "name": "_contractId",
          "type": "string"
        }
      ],
      "name": "releaseAll",
      "outputs": [],
      "stateMutability": "nonpayable",
      "type": "function"
    },
    {
      "inputs": [
        {
          "internalType": "string",
          "name": "_contractId",
          "type": "string"
        },
        {
          "internalType": "uint256",
          "name": "_milestoneIndex",
          "type": "uint256"
        }
      ],
      "name": "releaseMilestone",
      "outputs": [],
      "stateMutability": "nonpayable",
      "type": "function"
    }
  ],
  "bytecode": "0x608060405234801561001057600080fd5b5061160f806100206000396000f3fe608060405234801561001057600080fd5b506004361061007d5760003560e01c80637243be501161005b5780637243be50146100d8578063c2268ecf146100f4578063c497d91714610124578063fe5f2e88146101585761007d565b806318e3feb0146100825780632456793d146100a057806349818795146100bc575b600080fd5b61008a610174565b6040516100979190610cf6565b60405180910390f35b6100ba60048036038101906100b59190610e61565b61024d565b005b6100d660048036038101906100d19190610eaa565b6103fc565b005b6100f260048036038101906100ed9190610f58565b610649565b005b61010e60048036038101906101099190610fb4565b6107c0565b60405161011b919061102b565b60405180910390f35b61013e60048036038101906101399190610e61565b61086c565b60405161014f9594939291906110b8565b60405180910390f35b610172600480360381019061016d9190610e61565b6109f5565b005b60606001805480602002602001604051908101604052809291908181526020016000905b828210156102445783829060005260206000200180546101b790611148565b80601f01602080910402602001604051908101604052809291908181526020018280546101e390611148565b80156102305780601f1061020557610100808354040283529160200191610230565b820191906000526020600020905b81548152906001019060200180831161021357829003601f168201915b505050505081526020019060010190610198565b50505050905090565b600073ffffffffffffffffffffffffffffffffffffffff1660008260405161027591906111b5565b908152602001604051809103902060020160009054906101000a900473ffffffffffffffffffffffffffffffffffffffff1673ffffffffffffffffffffffffffffffffffffffff16036102fd576040517f08c379a00000000000000000000000000000000000000000000000000000000081526004016102f490611218565b60405180910390fd5b6000151560008260405161031191906111b5565b908152602001604051809103902060040160009054906101000a900460ff16151514610372576040517f08c379a000000000000000000000000000000000000000000000000000000000815260040161036990611284565b60405180910390fd5b600160008260405161038491906111b5565b908152602001604051809103902060040160006101000a81548160ff021916908315150217905550806040516103ba91906111b5565b60405180910390207f88ff7f6d37554d7587db2874334a2ff8b5a17f5dde7530f150cfb95069e86656426040516103f191906112a4565b60405180910390a250565b600073ffffffffffffffffffffffffffffffffffffffff1660008360405161042491906111b5565b908152602001604051809103902060020160009054906101000a900473ffffffffffffffffffffffffffffffffffffffff1673ffffffffffffffffffffffffffffffffffffffff16146104ac576040517f08c379a00000000000000000000000000000000000000000000000000000000081526004016104a39061130b565b60405180910390fd5b6040518060a001604052808381526020018281526020013373ffffffffffffffffffffffffffffffffffffffff168152602001428152602001600015158152506000836040516104fc91906111b5565b9081526020016040518091039020600082015181600001908161051f91906114d7565b50602082015181600101908161053591906114d7565b5060408201518160020160006101000a81548173ffffffffffffffffffffffffffffffffffffffff021916908373ffffffffffffffffffffffffffffffffffffffff1602179055506060820151816003015560808201518160040160006101000a81548160ff0219169083151502179055509050506001829080600181540180825580915050600190039060005260206000200160009091909190915090816105de91906114d7565b503373ffffffffffffffffffffffffffffffffffffffff168260405161060491906111b5565b60405180910390207f50641c02aad9da990ac4a06341defb64759269eb40b0fc24eda6a73458138c06834260405161063d9291906115a9565b60405180910390a35050565b600073ffffffffffffffffffffffffffffffffffffffff1660008360405161067191906111b5565b908152602001604051809103902060020160009054906101000a900473ffffffffffffffffffffffffffffffffffffffff1673ffffffffffffffffffffffffffffffffffffffff16036106f9576040517f08c379a00000000000000000000000000000000000000000000000000000000081526004016106f090611218565b60405180910390fd5b6000151560008360405161070d91906111b5565b908152602001604051809103902060040160009054906101000a900460ff1615151461076e576040517f08c379a000000000000000000000000000000000000000000000000000000000815260040161076590611284565b60405180910390fd5b808260405161077d91906111b5565b60405180910390207fcf7a9bbf27ef8e57719b49fb111b8c7191e40cd9f616478e6422c061f100ba18426040516107b491906112a4565b60405180910390a35050565b600181815481106107d057600080fd5b9060005260206000200160009150905080546107eb90611148565b80601f016020809104026020016040519081016040528092919081815260200182805461081790611148565b80156108645780601f1061083957610100808354040283529160200191610864565b820191906000526020600020905b81548152906001019060200180831161084757829003601f168201915b505050505081565b6000818051602081018201805184825260208301602085012081835280955050505050506000915090508060000180546108a590611148565b80601f01602080910402602001604051908101604052809291908181526020018280546108d190611148565b801561091e5780601f106108f35761010080835404028352916020019161091e565b820191906000526020600020905b81548152906001019060200180831161090157829003601f168201915b50505050509080600101805461093390611148565b80601f016020809104026020016040519081016040528092919081815260200182805461095f90611148565b80156109ac5780601f10610981576101008083540402835291602001916109ac565b820191906000526020600020905b81548152906001019060200180831161098f57829003601f168201915b5050505050908060020160009054906101000a900473ffffffffffffffffffffffffffffffffffffffff16908060030154908060040160009054906101000a900460ff16905085565b600073ffffffffffffffffffffffffffffffffffffffff16600082604051610a1d91906111b5565b908152602001604051809103902060020160009054906101000a900473ffffffffffffffffffffffffffffffffffffffff1673ffffffffffffffffffffffffffffffffffffffff1603610aa5576040517f08c379a0000000000000000000000000000000000000000000000000000000008152600401610a9c90611218565b60405180910390fd5b60001515600082604051610ab991906111b5565b908152602001604051809103902060040160009054906101000a900460ff16151514610b1a576040517f08c379a0000000000000000000000000000000000000000000000000000000008152600401610b1190611284565b60405180910390fd5b6001600082604051610b2c91906111b5565b908152602001604051809103902060040160006101000a81548160ff02191690831515021790555080604051610b6291906111b5565b60405180910390207f32edbc205ba33ada6beabf33c76abd4f5d5cdb3ba717784bed7fadfcbf7b8d7342604051610b9991906112a4565b60405180910390a250565b600081519050919050565b600082825260208201905092915050565b6000819050602082019050919050565b600081519050919050565b600082825260208201905092915050565b60005b83811015610c0a578082015181840152602081019050610bef565b60008484015250505050565b6000601f19601f8301169050919050565b6000610c3282610bd0565b610c3c8185610bdb565b9350610c4c818560208601610bec565b610c5581610c16565b840191505092915050565b6000610c6c8383610c27565b905092915050565b6000602082019050919050565b6000610c8c82610ba4565b610c968185610baf565b935083602082028501610ca885610bc0565b8060005b85811015610ce45784840389528151610cc58582610c60565b9450610cd083610c74565b925060208a01995050600181019050610cac565b50829750879550505050505092915050565b60006020820190508181036000830152610d108184610c81565b905092915050565b6000604051905090565b600080fd5b600080fd5b600080fd5b600080fd5b7f4e487b7100000000000000000000000000000000000000000000000000000000600052604160045260246000fd5b610d6e82610c16565b810181811067ffffffffffffffff82111715610d8d57610d8c610d36565b5b80604052505050565b6000610da0610d18565b9050610dac8282610d65565b919050565b600067ffffffffffffffff821115610dcc57610dcb610d36565b5b610dd582610c16565b9050602081019050919050565b82818337600083830152505050565b6000610e04610dff84610db1565b610d96565b905082815260208101848484011115610e2057610e1f610d31565b5b610e2b848285610de2565b509392505050565b600082601f830112610e4857610e47610d2c565b5b8135610e58848260208601610df1565b91505092915050565b600060208284031215610e7757610e76610d22565b5b600082013567ffffffffffffffff811115610e9557610e94610d27565b5b610ea184828501610e33565b91505092915050565b60008060408385031215610ec157610ec0610d22565b5b600083013567ffffffffffffffff811115610edf57610ede610d27565b5b610eeb85828601610e33565b925050602083013567ffffffffffffffff811115610f0c57610f0b610d27565b5b610f1885828601610e33565b9150509250929050565b6000819050919050565b610f3581610f22565b8114610f4057600080fd5b50565b600081359050610f5281610f2c565b92915050565b60008060408385031215610f6f57610f6e610d22565b5b600083013567ffffffffffffffff811115610f8d57610f8c610d27565b5b610f9985828601610e33565b9250506020610faa85828601610f43565b9150509250929050565b600060208284031215610fca57610fc9610d22565b5b6000610fd884828501610f43565b91505092915050565b600082825260208201905092915050565b6000610ffd82610bd0565b6110078185610fe1565b9350611017818560208601610bec565b61102081610c16565b840191505092915050565b600060208201905081810360008301526110458184610ff2565b905092915050565b600073ffffffffffffffffffffffffffffffffffffffff82169050919050565b60006110788261104d565b9050919050565b6110888161106d565b82525050565b61109781610f22565b82525050565b60008115159050919050565b6110b28161109d565b82525050565b600060a08201905081810360008301526110d28188610ff2565b905081810360208301526110e68187610ff2565b90506110f5604083018661107f565b611102606083018561108e565b61110f60808301846110a9565b9695505050505050565b7f4e487b7100000000000000000000000000000000000000000000000000000000600052602260045260246000fd5b6000600282049050600182168061116057607f821691505b60208210810361117357611172611119565b5b50919050565b600081905092915050565b600061118f82610bd0565b6111998185611179565b93506111a9818560208601610bec565b80840191505092915050565b60006111c18284611184565b915081905092915050565b7f436f6e747261637420646f6573206e6f74206578697374000000000000000000600082015250565b6000611202601783610fe1565b915061120d826111cc565b602082019050919050565b60006020820190508181036000830152611231816111f5565b9050919050565b7f436f6e747261637420616c726561647920636f6d706c65746564000000000000600082015250565b600061126e601a83610fe1565b915061127982611238565b602082019050919050565b6000602082019050818103600083015261129d81611261565b9050919050565b60006020820190506112b9600083018461108e565b92915050565b7f436f6e747261637420494420616c726561647920657869737473000000000000600082015250565b60006112f5601a83610fe1565b9150611300826112bf565b602082019050919050565b60006020820190508181036000830152611324816112e8565b9050919050565b60008190508160005260206000209050919050565b60006020601f8301049050919050565b600082821b905092915050565b60006008830261138d7fffffffffffffffffffffffffffffffffffffffffffffffffffffffffffffffff82611350565b6113978683611350565b95508019841693508086168417925050509392505050565b6000819050919050565b60006113d46113cf6113ca84610f22565b6113af565b610f22565b9050919050565b6000819050919050565b6113ee836113b9565b6114026113fa826113db565b84845461135d565b825550505050565b600090565b61141761140a565b6114228184846113e5565b505050565b5b818110156114465761143b60008261140f565b600181019050611428565b5050565b601f82111561148b5761145c8161132b565b61146584611340565b81016020851015611474578190505b61148861148085611340565b830182611427565b50505b505050565b600082821c905092915050565b60006114ae60001984600802611490565b1980831691505092915050565b60006114c7838361149d565b9150826002028217905092915050565b6114e082610bd0565b67ffffffffffffffff8111156114f9576114f8610d36565b5b6115038254611148565b61150e82828561144a565b600060209050601f831160018114611541576000841561152f578287015190505b61153985826114bb565b8655506115a1565b601f19841661154f8661132b565b60005b8281101561157757848901518255600182019150602085019450602081019050611552565b868310156115945784890151611590601f89168261149d565b8355505b6001600288020188555050505b505050505050565b600060408201905081810360008301526115c38185610ff2565b90506115d2602083018461108e565b939250505056fea2646970667358221220d9e3a89c6928d9f5d31f2e0ab6ef0025bc5ff0a6217c08b9c634253ebd7d59ab64736f6c63430008180033",
  "linkReferences": {},
  "deployedLinkReferences": {}
}